:1000000000308A00302800000A108A100A11820786
:10001000C0340034F9340034A4340034B034003433
:10002000993400348C3400348E340034CC340034B1
:10003000803400347C3400342D30840000080319EF
:100040002E280630A100A001A00B2428A10B2328F4
:100050007B30A000A00B2A28800B21288A11682859
:1000600084011F308305073083169F0007308312F9
:100070009F00FF3083168500003086000030860028
:10008000FF3083128600A6010130AA00FF308316DC
:100090008500831205080139AA002A0B502872280E
:1000A0000310260DA0002008AC002C0A0420A30099
:1000B0002C080420AD002308AE0000308316860013
:1000C00083122D0886000230AC00FA30AD001C28E7
:1000D000AC0B6528A60A0130AA0026080A3C031DBD
:0800E0007228A6014628630006
:02400E007A3FF7
:00000001FF
;PIC16F873A
