:1000000000308A00172800002730840000080319F8
:1000100016280630A100A001A00B0C28A10B0B286C
:100020007B30A000A00B1228800B0928003484012B
:100030001F308305073083169F00073083129F000F
:10004000003083168600003086008312860100305F
:1000500083168600831286010230A6009630A70020
:100060000420A60B2E28003083168600FF30831252
:1000700086000230A6009630A7000420A60B3B287D
:0400800027286300CA
:02400E007A3FF7
:00000001FF
;PIC16F873A
