:1000000000308A00182800002A30840000080319F4
:1000100016280630A100A001A00B0C28A10B0B286C
:100020007B30A000A00B1228800B09288A114828D9
:1000300084011F308305073083169F000730831229
:100040009F001F3083168500003086000030860038
:10005000831286010130A700A70803193728FF3053
:1000600083168500831205080139A7002C28A601F4
:100070008030A8002808FF3AA900003083168600C7
:100080008312290886000230A9009630AA000428AD
:10009000A90B45280310A80CA60A2608073C03183C
:0C00A0005428A6018030A8003A28630014
:02400E007A3FF7
:00000001FF
;PIC16F873A
