:1000000000308A00172800002730840000080319F8
:1000100016280630A100A001A00B0C28A10B0B286C
:100020007B30A000A00B1228800B0928003484012B
:100030001F308305073083169F00073083129F000F
:10004000003083168600003086008312860100305F
:1000500083168600AA30831286000230A600FA308A
:10006000A7000420A60B2F280030831686005530E9
:10007000831286000230A600FA30A7000420A60BE7
:060080003C282728630064
:02400E007A3FF7
:00000001FF
;PIC16F873A
