:1000000000308A00172800002D30840000080319F2
:1000100016280630A100A001A00B0C28A10B0B286C
:100020007B30A000A00B1228800B0928003484012B
:100030001F308305073083169F00073083129F000F
:10004000FF30831685000030860000308600FF30C8
:1000500083128600003083168600DD30831286000E
:100060000430AC00FA30AD000420AC0B3228003074
:1000700083168600EE30831286000430AC00FA301E
:10008000AD000420AC0B3F28003083168600BB3047
:10009000831286000430AC00FA30AD000420AC0BB3
:1000A0004C28003083168600FF308312860004300F
:0E00B000AC00FA30AD000420AC0B5928630000
:02400E007A3FF7
:00000001FF
;PIC16F873A
