:1000000000308A00322800002930840000080319DB
:1000100016280630A100A001A00B0C28A10B0B286C
:100020007B30A000A00B1228800B09280034003080
:1000300083168600FF30831286000230A8009630B7
:10004000A9000420A80B1F28003083168600831205
:1000500086010230A8009630A9000420A80B2B28A6
:100060008A114A2884011F308305073083169F00B8
:10007000073083129F001F308316850000308600F2
:1000800000308600831286010130A600A6080319FD
:1000900052281728FF30831685008312050801397E
:0600A000A60046286300E3
:02400E007A3FF7
:00000001FF
;PIC16F873A
