:1000000000308A002A2800000A108A100A1182078C
:10001000DD340034CC340034EE340034AA340034FF
:10002000BB34003499340034883400342D308400DB
:100030000008031928280630A100A001A00B1E28E3
:10004000A10B1D287B30A000A00B2428800B1B28AF
:100050008A115A2884011F308305073083169F00B8
:10006000073083129F00FF30831685000030860022
:1000700000308600FF3083128600A6012608073C68
:1000800003195E280310260DA0002008AC002C0ADE
:100090000420A3002C080420AD002308AE0000308B
:1000A0008316860083122D0886000430AC00FA30D7
:1000B000AD001628AC0B5728A60A3E283D28630041
:02400E007A3FF7
:00000001FF
;PIC16F873A
