:1000000000308A00172800002930840000080319F6
:1000100016280630A100A001A00B0C28A10B0B286C
:100020007B30A000A00B1228800B0928003484012B
:100030001F308305073083169F00073083129F000F
:100040001F30831685000030860000308600831242
:1000500086010130A600A60803193628FF30831652
:100060008500831205080139A6002B28A70127085F
:10007000093C031C5628003083168600FF3083128B
:1000800086000430A800C830A9000420A80B43282B
:10009000003083168600831286010430A800C83021
:0E00A000A9000420A80B4F28A70A37286300E8
:02400E007A3FF7
:00000001FF
;PIC16F873A
