:1000000000308A00182800002930840000080319F5
:1000100016280630A100A001A00B0C28A10B0B286C
:100020007B30A000A00B1228800B09288A113A28E7
:1000300084011F308305073083169F000730831229
:100040009F000030831686000030860083128601F0
:100050008030A600A7012708073C031C4028003079
:10006000831686008312260886000230A800963088
:10007000A9000428A80B37280310A60CA70A2B28D0
:0200800063001B
:02400E007A3FF7
:00000001FF
;PIC16F873A
