:1000000000308A00962800003208A101310203184E
:100010000C283108A0001828A0010830B300B10D49
:10002000A00D320820020318A000A10DB30B0F2869
:100030000034FF3083168500831205080139AE00B5
:10004000AE08031925280130A500FF30831686006D
:10005000831206080139AE00AE08031931280130B9
:10006000A600FF30B000831687008312070801390D
:10007000AE00AE0803193E280130A700A5080319F9
:1000800054282F08B1000530B2000420A008031D39
:100090004A28A80A2808073C031850280130A8005D
:1000A0000310280DAB00AB16A60803196A282F0809
:1000B000B1000530B2000420A008031D6028A90A81
:1000C0002908073C031866280130A9000310290DF0
:1000D000AC00AC16A708031980282F08B100053022
:1000E000B2000420A008031D7628AA0A2A08073CAB
:1000F00003187C280130AA0003102A0DAD00AD16AC
:100100008A11C3283130840000080319942806306E
:10011000A100A001A00B8A28A10B89287B30A00098
:10012000A00B9028800B87288A11D32884011F30C8
:100130008305073083169F00073083129F00FF302E
:10014000B000013083168500813086008130870041
:100150008312B000A501A601A501A801A901AA0169
:100160001030AB001030AC001030AD00FF30831603
:100170008600831206080039003A0319C228A50137
:10018000A601A501192800308316860083122C08C9
:1001900086000030B0008316870083122D08870088
:0C01A0006430B1008228AF0AB62863006A
:02400E007A3FF7
:00000001FF
;PIC16F873A
