:1000000000308A00182800002A30840000080319F4
:1000100016280630A100A001A00B0C28A10B0B286C
:100020007B30A000A00B1228800B09288A115D28C4
:1000300084011F308305073083169F000730831229
:100040009F00FF30A5001F3083168500003086001A
:10005000003087008312A5000030831686008312CB
:1000600086010030A50083168700831287010130C6
:10007000A700A70803194528FF30831685008312BF
:100080000508A7000130A7053928A601A608031D09
:100090004B280130A8000030831686008312280800
:1000A00086000030A5008316870083122808870089
:1000B0000230A9009630AA000428A90B5A28031080
:1000C000A80DA60A2608073C03186728A60146289B
:0200D0006300CB
:02400E007A3FF7
:00000001FF
;PIC16F873A
