:1000000000308A0065280000FF30831685008312C7
:1000100005080139AC00FF308316860083120608FC
:100020000139AD00FF30AF00831687008312070847
:100030000139AE00AC0803191F280C30A500AD082B
:10004000031924280C30A600AE08031929280C3007
:10005000A7008A11962831308400000803193D2832
:100060000630A100A001A00B3328A10B32287B3061
:10007000A000A00B3928800B30280034FF308316F5
:100080008500831205080139AC00FF308316860015
:10009000831206080139AD00FF30AF0083168700D8
:1000A000831207080139AE00AC08031959280E3035
:1000B000A500AD0803195E280E30A600AE0803198E
:1000C00063280E30A7008A11B12884011F308305F0
:1000D000073083169F00073083129F00FF30AF0068
:1000E00000308316850000308600003087008312C0
:1000F000AF00A501A601A7010230A8000230A900A7
:100100000230AA000030831685008312250885007E
:100110000030831686008312260886000030AF0068
:100120008316870083122708870004280230B00056
:10013000FA30B1002B20B00B9828003083168500D0
:100140008312280885000030831686008312290850
:1001500086000030AF008316870083122A088700CC
:100160003E280230B000FA30B1002B20B00BB3288B
:04017000822863007E
:02400E007A3FF7
:00000001FF
;PIC16F873A
