:1000000000308A00172800003130840000080319EE
:1000100016280630A100A001A00B0C28A10B0B286C
:100020007B30A000A00B1228800B0928003484012B
:100030001F308305073083169F00073083129F000F
:10004000FF30AF000130831685000130860001309B
:1000500087008312AF000230A5000430A6000830EC
:10006000A7001030A8002030A9004030AA0080303E
:10007000AB00FF30AC00FF3083168500831205080B
:100080000139A500A5080319AD28003083168500A5
:100090008312250885000230B000FA30B100042038
:1000A000B00B4D280030831685008312260885008A
:1000B0000230B000FA30B1000420B00B5A280030F2
:1000C000831685008312270885000230B000FA30BD
:1000D000B1000420B00B672800308316850083121E
:1000E000280885000230B000FA30B1000420B00BBF
:1000F0007428003083168500831229088500023099
:10010000B000FA30B1000420B00B81280030831613
:10011000850083122A0885000230B000FA30B10051
:100120000420B00B8E2800308316850083122B0824
:1001300085000230B000FA30B1000420B00B9B28DB
:1001400000308316850083122C0885000430B0002F
:10015000FA30B1000420B00BA828A508031DB5286B
:0E016000003083168600831286013B28630060
:02400E007A3FF7
:00000001FF
;PIC16F873A
