:1000000000308A0062280000FF30831685008312CA
:1000100005080139AC00FF308316860083120608FC
:100020000139AD00FF30AF00831687008312070847
:100030000139AE00AC0803191F280230A500AD0835
:10004000031924280230A600AE080319292802301B
:10005000A7008A11962831308400000803193D2832
:100060000630A100A001A00B3328A10B32287B3061
:10007000A000A00B3928800B30280034FF308316F5
:100080008500831205080139AC00FF308316860015
:10009000831206080139AD00FF30AF0083168700D8
:1000A000831207080139AE00AC0803195828A501CE
:1000B000AD0803195C28A601AE0803196028A70142
:1000C0008A11B12884011F308305073083169F00F1
:1000D000073083129F00FF30AF0001308316850088
:1000E00001308600013087008312AF000E30A5007A
:1000F0000E30A6000E30A7000C30A8000C30A9006E
:100100000C30AA0000308316850083122508850074
:100110000030831686008312260886000030AF0068
:100120008316870083122708870004280230B00056
:10013000FA30B1002B20B00B9828003083168500D0
:100140008312280885000030831686008312290850
:1001500086000030AF008316870083122A088700CC
:100160003E280230B000FA30B1002B20B00BB3288B
:04017000822863007E
:02400E007A3FF7
:00000001FF
;PIC16F873A
